:100000000C9434000C9451000C9451000C94510049
:100010000C9451000C9451000C9451000C9451001C
:100020000C9451000C9451000C94A5010C945301B4
:100030000C9470010C9451000C9451000C945100DC
:100040000C9451000C9451000C942C010C94510010
:100050000C9451000C9451000C9451000C945100DC
:100060000C9451000C94510011241FBECFEFD8E026
:10007000DEBFCDBF11E0A0E0B1E0E4E6F4E102C0F4
:1000800005900D92AE37B107D9F727E0AEE7B1E0A2
:1000900001C01D92A03EB207E1F70E94E5050C9455
:1000A000300A0C940000CF92DF92EF92FF92CF9330
:1000B000DF93EC016A017B0182E190E00E9425065A
:1000C000FC0190937F0180937E01892B39F1D183CC
:1000D000C083C186D286E386F48616821086178294
:1000E00013821282158214821686158617868091D5
:1000F000820190918301918B808B892B21F4F09365
:100100008101E093800180E0FE01099580917E01EC
:1001100090917F01909383018093820180917E0171
:1001200090917F01DF91CF91FF90EF90DF90CF9082
:10013000089590937F0180937E01009771F0FC01F8
:100140000190F081E02D81E00995E0917E01F09130
:100150007F0182E0878780E0089581E00895909391
:100160007F0180937E01009731F0FC010190F081C6
:10017000E02D80E00995089590937F0180937E01A2
:10018000009721F0FC017383628316820895FC01BD
:1001900090937F0180937E01892B29F0758364837E
:1001A0008681886086830895E0918001F0918101C5
:1001B0003097E9F1868183FF26C01682248135813C
:1001C00082819381281B390BAFE9B6E40E941606A1
:1001D000929582958F7089279F7089279087878352
:1001E0000584F685E02D309749F0A0917E01B0910D
:1001F0007F0117968D919C9118970995E091800148
:10020000F09181011786E0917E01F0917F01808954
:1002100091899093810180938001892B41F4809191
:1002200082019091830190938101809380010895D0
:1002300090937F0180937E01009719F0FC017687EF
:1002400065870895882321F085B1826085B9089576
:1002500085B18D7F85B908951F920F920FB60F92C9
:1002600011248F939F93AF93BF93EF93FF93E8E88D
:10027000F1E0A081B181838191E0980F9383A80F71
:10028000B11D8091C6008C938281938189238383E1
:10029000FF91EF91BF91AF919F918F910F900FBE02
:1002A0000F901F9018951F920F920FB60F92112466
:1002B0008F939F93EF93FF93E8E8F0E08081918123
:1002C000805E914B918380838EB381608EBBFF9162
:1002D000EF919F918F910F900FBE0F901F901895E7
:1002E0001F920F920FB60F9211242F933F934F93AB
:1002F0005F936F937F938F939F93AF93BF93EF938E
:10030000FF9380915602909157020E94AF0086B3EE
:10031000806286BBE1E8F0E080EC808380818260CF
:10032000808382E280936F00FF91EF91BF91AF9144
:100330009F918F917F916F915F914F913F912F91FD
:100340000F900FBE0F901F9018951F920F920FB62F
:100350000F9211242F933F934F935F936F937F934B
:100360008F939F93AF93BF93EF93FF9380918100FF
:1003700086FF10C082E880938100609186007091B2
:1003800087007695679580915602909157020E945A
:10039000BC0011C0EFE6F0E080818F7D808360912A
:1003A00086007091870076956795809156029091AE
:1003B00057020E94C700FF91EF91BF91AF919F91AB
:1003C0008F917F916F915F914F913F912F910F90FE
:1003D0000FBE0F901F90189582E284B90895109275
:1003E000800080E29EE4909389008093880086B329
:1003F00086BB82E080936F0082E88093810008953D
:10040000E0ECF0E08081808382E08083E1ECF0E04A
:1004100080E9808388E0808386E08093C20080E169
:1004200090E09093C5008093C400E8E8F1E08AE58D
:1004300097E0918380838FE78283138214821682F0
:10044000E0E5F2E020E931E031832083828313820A
:1004500014820895409108015091090160910A01A8
:1004600070910B0180910C0190910D01A0910E01F2
:10047000B0910F0184239523A623B723892B8A2BC0
:100480008B2B21F085B1806285B903C085B18F7D4A
:1004900085B980910C0190910D01A0910E01B09150
:1004A0000F01B695A7959795879580930C0190932A
:1004B0000D01A0930E01B0930F01892B8A2B8B2B7A
:1004C00061F480E090E0A0E0B0E880930C019093AC
:1004D0000D01A0930E01B0930F010895CF93DF9308
:1004E000FC0190E00FC0A081B181838121E0280F41
:1004F0002383A80FB11D9F5F88818C938281238104
:1005000082238383EB01C90FD11D88818111EBCF39
:10051000DF91CF910895E0E5F2E08481938189171E
:1005200089F09091C00095FF0DC0A081B18191E04C
:10053000980F9483A80FB11D8C918093C60082817F
:1005400089238483089520E030E019C0F901EE0F7B
:10055000FF1FC901880F991F880F991F880F991FC6
:10056000E80FF91FE65AFD4F13821282108215829E
:1005700014821782168284E081872F5F3F4F80911B
:100580000601909107012817390700F3089580911B
:10059000840190918501FC01EE0FFF1F9C01220F49
:1005A000331F220F331F220F331FE20FF31FE65AB0
:1005B000FD4F22813381245031092930310508F45F
:1005C00047C09C01220F331F220F331F220F331FFE
:1005D000FC01EE0FFF1FE20FF31FE65AFD4F2185CE
:1005E000233081F4FC01EE0FFF1F880F991F880F45
:1005F000991F880F991FE80FF91FE65AFD4F86E0F3
:10060000818779C0253081F4FC01EE0FFF1F880F30
:10061000991F880F991F880F991FE80FF91FE65A35
:10062000FD4F84E0818767C0243009F064C0FC017D
:10063000EE0FFF1F880F991F880F991F880F991FB2
:10064000E80FF91FE65AFD4F86E08187108253C0FC
:100650009C01220F331F220F331F220F331FFC0177
:10066000EE0FFF1FE20FF31FE65AFD4F21852430E6
:1006700081F4FC01EE0FFF1F880F991F880F991F4F
:10068000880F991FE80FF91FE65AFD4F85E0818713
:1006900032C0263081F4FC01EE0FFF1F880F991F36
:1006A000880F991F880F991FE80FF91FE65AFD4F11
:1006B00083E0818720C02330F1F4FC01EE0FFF1F9F
:1006C0009C01220F331F220F331F220F331FE20F13
:1006D000F31FE65AFD4F25E02187108201962091F5
:1006E0000601309107012150310982239323909311
:1006F0008501809384014091840150918501CA0154
:100700000197FC01EE0FFF1F9C01220F331F220FE8
:10071000331F220F331FE20FF31FE65AFD4F2185CF
:100720002530B9F1263009F00EC1FC01EE0FFF1F94
:10073000880F991F880F991F880F991FE80FF91FBD
:10074000E65AFD4F80818111FEC08CE0E3E1F1E0CB
:10075000A0E1B2E001900D928A95E1F760E172E0CC
:1007600080E592E00E946E02809184019091850163
:100770000197FC01EE0FFF1F880F991F880F991F2B
:10078000880F991FE80FF91FE65AFD4F81E080831B
:1007900008959C01220F331F220F331F220F331F96
:1007A000FC01EE0FFF1FE20FF31FE65AFD4F208101
:1007B0002111C9C09C01220F331F220F331F220FAA
:1007C000331FFC01EE0FFF1FE20FF31FE65AFD4F30
:1007D00022813381B901645071096330710528F5B4
:1007E0009C01220F331F220F331F220F331FFC01E6
:1007F000EE0FFF1FE20FF31FEE59FD4F21E430E033
:10080000318320839A01220F331F220F331F220FBF
:10081000331FFA01EE0FFF1FE20FF31FE65AFD4FE1
:1008200020ED37E0358324834AC0B9016750710950
:100830006330710528F59C01220F331F220F331FEF
:10084000220F331FFC01EE0FFF1FE20FF31FEE59C3
:10085000FD4F22E430E0318320839A01220F331FC1
:10086000220F331F220F331FFA01EE0FFF1FE20F7B
:10087000F31FE65AFD4F20EA3FE0358324831FC073
:100880002A50310923303105D0F49C01220F331F47
:10089000220F331F220F331FBC01660F771F260F55
:1008A000371FF901EE59FD4F63E470E071836083F7
:1008B000F901E65AFD4F60E777E175836483FC0137
:1008C000EE0FFF1F880F991F880F991F880F991F20
:1008D000E80FF91FE65AFD4F87E0818780859381F5
:1008E0009F9392819F931F928F935F934F938FE17A
:1008F00091E09F938F9380E192E09F938F930E946A
:10090000460760E172E080E592E00E946E0280910D
:100910008401909185010197FC01EE0FFF1F880F64
:10092000991F880F991F880F991FE80FF91FE65A22
:10093000FD4F81E080838DB79EB70A960FB6F8947D
:100940009EBF0FBE8DBF089585319105C8F42091DB
:1009500084013091850144E150E0BA01681B790BB4
:10096000F901EE0FFF1F220F331F220F331F220F3B
:10097000331FE20FF31FE65AFD4F7383628313C0E8
:100980008091840190918501FC01EE0FFF1F880F7B
:10099000991F880F991F880F991FE80FF91FE65AB2
:1009A000FD4F1382128280911201811116C08AE0DC
:1009B000809312012091840130918501C901880F33
:1009C000991F220F331F220F331F220F331F820F55
:1009D000931F865A9D4F0E94C70208950F931F933D
:1009E000CF93DF93C0E0D0E0AAC0CE01880F991F5B
:1009F000880F991F880F991FFE01EE0FFF1FE80F48
:100A0000F91FE65AFD4F8185873009F03FC0CE01BE
:100A1000880F991F880F991F880F991FFE01EE0FED
:100A2000FF1FE80FF91FE65AFD4F268137818481A9
:100A3000958128173907B9F4CE01880F991F880FBF
:100A4000991F880F991FFE01EE0FFF1FE80FF91F76
:100A5000E65AFD4F1782168288EC90E095838483D6
:100A600088E081876BC0CE01880F991F880F991F7E
:100A7000880F991FFE01EE0FFF1FE80FF91FE65ABE
:100A8000FD4F2C593F4F3783268358C0883009F0DB
:100A900055C0CE01880F991F880F991F880F991F85
:100AA000FE01EE0FFF1FE80FF91FE65AFD4F2681EA
:100AB0003781848195812817390771F58F01178255
:100AC00016821582148284E08187808593819F93AA
:100AD00092819F931F928F93CE0101969F938F9344
:100AE0008AE491E09F938F9380E192E09F938F93AC
:100AF0000E94460760E172E080E592E00E946E028B
:100B000081E0F80180838DB79EB70A960FB6F894FE
:100B10009EBF0FBE8DBF12C0CE01880F991F880FD8
:100B2000991F880F991FFE01EE0FFF1FE80FF91F95
:100B3000E65AFD4F2C593F4F3783268321968091EB
:100B4000840190918501C817D90708F44ECFDF9131
:100B5000CF911F910F9108958EB380728EBB8091BB
:100B60001201815080931201909111019150909344
:100B70001101811117C080918400909185000A961F
:100B8000909387018093860190938B0080938A00D5
:100B900086E086BB80936F00809156029091570249
:100BA0000E9499008091110181110EC08AE080930A
:100BB00011010E942A020E94EE04809110018823F4
:100BC00019F08150809310010895F8941092DB077A
:100BD0000E94EC010E94EF010E9400020E94A30209
:100BE0004AE050E060E070E082E291E00E94530051
:100BF000AC0160E070E0409356025093570260935E
:100C000058027093590264EA74E00E94180166E782
:100C100071E080E592E00E946E027894F0990E9463
:100C2000AC050E948B020E94D400F8CFA29FB001B5
:100C3000B39FC001A39F700D811D1124911DB29F10
:100C4000700D811D1124911D08950F931F93CF9353
:100C5000DF938230910510F482E090E0E091DE07AE
:100C6000F091DF0720E030E0A0E0B0E0309719F12C
:100C7000408151810281138148175907C8F08417B8
:100C8000950769F4109731F012960C93129713960A
:100C90001C9327C00093DE071093DF0722C02115A5
:100CA000310519F04217530718F49A01BD01EF01FD
:100CB000DF01F801DBCF21153105F9F0281B390BD5
:100CC0002430310580F48A819B816115710521F002
:100CD000FB019383828304C09093DF078093DE0738
:100CE000FE01329644C0FE01E20FF31F81939193FF
:100CF00022503109398328833AC02091DC07309192
:100D0000DD07232B41F42091020130910301309340
:100D1000DD072093DC0720910001309101012115AE
:100D2000310541F42DB73EB74091040150910501C2
:100D3000241B350BE091DC07F091DD07E217F30788
:100D4000A0F42E1B3F0B2817390778F0AC014E5F3B
:100D50005F4F2417350748F04E0F5F1F5093DD0794
:100D60004093DC078193919302C0E0E0F0E0CF0173
:100D7000DF91CF911F910F910895CF93DF9300974B
:100D800009F481C0FC01329713821282A091DE0720
:100D9000B091DF07109781F420813181820F931F7A
:100DA0002091DC073091DD072817390751F5F093C2
:100DB000DD07E093DC0767C0ED0120E030E0CE17EF
:100DC000DF0740F44A815B819E0141155105F1F036
:100DD000EA01F5CFD383C28340815181840F951FEF
:100DE000C817D90759F488819981840F951F0296F5
:100DF000918380838A819B8193838283211531052E
:100E000029F4F093DF07E093DE073DC0E901FB839F
:100E1000EA8349915991C40FD51FEC17FD0761F47E
:100E200080819181840F951F0296E90199838883BF
:100E3000828193819B838A83E0E0F0E012968D911A
:100E40009C911397009719F0FD01DC01F7CF8D916C
:100E50009C9111979D012E5F3F4F820F931F209110
:100E6000DC073091DD072817390769F4309729F43A
:100E70001092DF071092DE0702C013821282B09335
:100E8000DD07A093DC07DF91CF910895AEE0B0E0DD
:100E9000ECE4F7E00C94070A0D891E8986E08C8348
:100EA0001A8309838FEF9FE79E838D83AE01475E90
:100EB0005F4F6F89788DCE0101960E946807EF81A0
:100EC000F885E00FF11F10822E96E4E00C94230ABF
:100ED000ABE0B0E0EEE6F7E00C94F9096C017B01C1
:100EE0008A01FC0117821682838181FFCCC1CE0169
:100EF00001963C01F6019381F70193FD859193FFE3
:100F000081917F01882309F4BAC1853239F493FDB8
:100F1000859193FF81917F01853229F4B60190E09C
:100F20000E945F09E7CF912C212C312CFFE1F315B2
:100F3000D8F08B3279F038F4803279F08332A1F432
:100F4000232D20611DC08D3261F0803369F4232D83
:100F5000216016C0832D8260382EE32DE4603E2E82
:100F60002AC0F32DF8601DC037FC2DC020ED280FDE
:100F70002A3040F08E32B9F436FC81C1232D206432
:100F8000322E19C036FE06C08AE0989E200D11242C
:100F9000922E11C0EAE02E9E200D1124222EF32D58
:100FA000F0623F2E08C08C3621F4832D8068382EE5
:100FB00002C0883641F4F70193FD859193FF81913A
:100FC0007F018111B3CF982F9F7D9554933028F4E2
:100FD0000C5F1F4F9FE399830DC0833631F0833739
:100FE00071F0833509F059C021C0F80180818983EF
:100FF0000E5F1F4F88248394912C530113C0280146
:10100000F2E04F0E511CF801A080B18036FE03C003
:10101000692D70E002C06FEF7FEFC5010E94540997
:101020004C018201F32DFF773F2E16C0280122E0EC
:10103000420E511CF801A080B18036FE03C0692D1C
:1010400070E002C06FEF7FEFC5010E9449094C01BB
:10105000F32DF0683F2E820133FC1BC0822D90E0FF
:1010600088169906B0F4B60180E290E00E945F090C
:101070002A94F4CFF50137FC859137FE81915F0109
:10108000B60190E00E945F0921102A9421E0821AA3
:1010900091088114910471F7E8C0843611F0893603
:1010A00041F5F80137FE07C060817181828193812B
:1010B0000C5F1F4F08C060817181072E000C880BE8
:1010C000990B0E5F1F4FF32DFF763F2E97FF09C040
:1010D00090958095709561957F4F8F4F9F4FF068E9
:1010E0003F2E2AE030E0A3010E949B09882E86183B
:1010F00045C0853731F4232D2F7EB22E2AE030E013
:1011000025C0932D997FB92E8F36C1F018F48835FC
:1011100079F0B5C0803719F0883721F0B0C0E92FD9
:10112000E061BE2EB4FE0DC0FB2DF460BF2E09C0E1
:1011300034FE0AC0292F2660B22E06C028E030E017
:1011400005C020E130E002C020E132E0F801B7FE46
:1011500007C060817181828193810C5F1F4F06C03F
:101160006081718180E090E00E5F1F4FA3010E94BB
:101170009B09882E8618FB2DFF773F2E36FE0DC06B
:10118000232D2E7FA22E891458F434FE0BC032FC7E
:1011900009C0832D8E7EA82E05C0B82CA32C03C0B9
:1011A000B82C01C0B92CA4FE0FC0FE01E80DF11D42
:1011B0008081803321F49A2D997EA92E09C0A2FE48
:1011C00006C0B394B39404C08A2D867809F0B39412
:1011D000A3FC11C0A0FE06C0B21488F4280C922C07
:1011E0009B180EC0B21460F4B60180E290E00E9439
:1011F0005F09B394F7CFB21418F42B1802C0982CDF
:10120000212CA4FE10C0B60180E390E00E945F098B
:10121000A2FE17C0A1FC03C088E790E002C088E5E9
:1012200090E0B6010CC08A2D867859F0A1FE02C06C
:101230008BE201C080E2A7FC8DE2B60190E00E9443
:101240005F09891438F4B60180E390E00E945F09D9
:101250009A94F7CF8A94F301E80DF11D8081B601CD
:1012600090E00E945F098110F5CF222009F442CE60
:10127000B60180E290E00E945F092A94F6CFF60161
:101280008681978102C08FEF9FEF2B96E2E10C944D
:10129000150AFC010590615070400110D8F7809547
:1012A00090958E0F9F1F0895FC0161507040019032
:1012B0000110D8F7809590958E0F9F1F08950F937A
:1012C0001F93CF93DF93FB01238121FD03C08FEF99
:1012D0009FEF2CC022FF16C04681578124813581A3
:1012E0004217530744F4A081B1819D012F5F3F4F06
:1012F000318320838C93268137812F5F3F4F378343
:10130000268314C08B01EC01FB010084F185E02DE4
:101310000995892BE1F6D80116968D919C91179726
:10132000019617969C938E931697CE01DF91CF91DD
:101330001F910F910895FA01AA27283051F1203109
:1013400081F1E8946F936E7F6E5F7F4F8F4F9F4F59
:10135000AF4FB1E03ED0B4E03CD0670F781F891F9B
:101360009A1FA11D680F791F8A1F911DA11D6A0F69
:10137000711D811D911DA11D20D009F468943F911C
:101380002AE0269F11243019305D3193DEF6CF011B
:101390000895462F4770405D4193B3E00FD0C9F7E1
:1013A000F6CF462F4F70405D4A3318F0495D31FD4E
:1013B0004052419302D0A9F7EACFB4E0A6959795A1
:1013C000879577956795BA95C9F700976105710577
:1013D00008959B01AC010A2E0694579547953795C1
:1013E0002795BA95C9F7620F731F841F951FA01D1B
:1013F00008952F923F924F925F926F927F928F92B9
:101400009F92AF92BF92CF92DF92EF92FF920F9393
:101410001F93CF93DF93CDB7DEB7CA1BDB0B0FB69D
:10142000F894DEBF0FBECDBF09942A88398848885A
:101430005F846E847D848C849B84AA84B984C884F0
:10144000DF80EE80FD800C811B81AA81B981CE0FE7
:10145000D11D0FB6F894DEBF0FBECDBFED010895CC
:04146000F894FFCF2E
:101464000000E00720008000000000AF00000080C2
:101474000A0A063E3E204E4F20424F58200A005B87
:10148400494E5D203C3C20424F583A252E3364207F
:101494002D20545950453A2563202D2053495A454F
:1014A4003A252E3264636D200A005B4F55545D204B
:1014B4003C3C20424F583A252E3364202D20545969
:1014C40050453A2563202D2053495A453A252E325A
:0E14D40064636D200A0052454144590D0A0020
:00000001FF
